{"abi":[{"type":"constructor","inputs":[{"name":"name_","type":"string","internalType":"string"},{"name":"symbol_","type":"string","internalType":"string"}],"stateMutability":"nonpayable"},{"type":"function","name":"allowance","inputs":[{"name":"owner","type":"address","internalType":"address"},{"name":"spender","type":"address","internalType":"address"}],"outputs":[{"name":"","type":"uint256","internalType":"uint256"}],"stateMutability":"view"},{"type":"function","name":"approve","inputs":[{"name":"spender","type":"address","internalType":"address"},{"name":"value","type":"uint256","internalType":"uint256"}],"outputs":[{"name":"","type":"bool","internalType":"bool"}],"stateMutability":"nonpayable"},{"type":"function","name":"balanceOf","inputs":[{"name":"account","type":"address","internalType":"address"}],"outputs":[{"name":"","type":"uint256","internalType":"uint256"}],"stateMutability":"view"},{"type":"function","name":"burn","inputs":[{"name":"value","type":"uint256","internalType":"uint256"}],"outputs":[],"stateMutability":"nonpayable"},{"type":"function","name":"burnFrom","inputs":[{"name":"account","type":"address","internalType":"address"},{"name":"value","type":"uint256","internalType":"uint256"}],"outputs":[],"stateMutability":"nonpayable"},{"type":"function","name":"calculateRandomNumbers","inputs":[],"outputs":[{"name":"","type":"uint256","internalType":"uint256"}],"stateMutability":"view"},{"type":"function","name":"decimals","inputs":[],"outputs":[{"name":"","type":"uint8","internalType":"uint8"}],"stateMutability":"view"},{"type":"function","name":"doEvenMoreOfNothing","inputs":[],"outputs":[],"stateMutability":"nonpayable"},{"type":"function","name":"letsPlaySomeGame","inputs":[],"outputs":[],"stateMutability":"nonpayable"},{"type":"function","name":"name","inputs":[],"outputs":[{"name":"","type":"string","internalType":"string"}],"stateMutability":"view"},{"type":"function","name":"owner","inputs":[],"outputs":[{"name":"","type":"address","internalType":"address"}],"stateMutability":"view"},{"type":"function","name":"randomInformation","inputs":[],"outputs":[{"name":"","type":"bool","internalType":"bool"}],"stateMutability":"nonpayable"},{"type":"function","name":"renounceOwnership","inputs":[],"outputs":[],"stateMutability":"nonpayable"},{"type":"function","name":"symbol","inputs":[],"outputs":[{"name":"","type":"string","internalType":"string"}],"stateMutability":"view"},{"type":"function","name":"totalCap","inputs":[],"outputs":[{"name":"","type":"uint256","internalType":"uint256"}],"stateMutability":"view"},{"type":"function","name":"totalSupply","inputs":[],"outputs":[{"name":"","type":"uint256","internalType":"uint256"}],"stateMutability":"view"},{"type":"function","name":"transfer","inputs":[{"name":"to","type":"address","internalType":"address"},{"name":"value","type":"uint256","internalType":"uint256"}],"outputs":[{"name":"","type":"bool","internalType":"bool"}],"stateMutability":"nonpayable"},{"type":"function","name":"transferFrom","inputs":[{"name":"from","type":"address","internalType":"address"},{"name":"to","type":"address","internalType":"address"},{"name":"value","type":"uint256","internalType":"uint256"}],"outputs":[{"name":"","type":"bool","internalType":"bool"}],"stateMutability":"nonpayable"},{"type":"function","name":"transferOwnership","inputs":[{"name":"newOwner","type":"address","internalType":"address"}],"outputs":[],"stateMutability":"nonpayable"},{"type":"event","name":"Approval","inputs":[{"name":"owner","type":"address","indexed":true,"internalType":"address"},{"name":"spender","type":"address","indexed":true,"internalType":"address"},{"name":"value","type":"uint256","indexed":false,"internalType":"uint256"}],"anonymous":false},{"type":"event","name":"OwnershipTransferred","inputs":[{"name":"previousOwner","type":"address","indexed":true,"internalType":"address"},{"name":"newOwner","type":"address","indexed":true,"internalType":"address"}],"anonymous":false},{"type":"event","name":"Transfer","inputs":[{"name":"from","type":"address","indexed":true,"internalType":"address"},{"name":"to","type":"address","indexed":true,"internalType":"address"},{"name":"value","type":"uint256","indexed":false,"internalType":"uint256"}],"anonymous":false},{"type":"error","name":"ERC20InsufficientAllowance","inputs":[{"name":"spender","type":"address","internalType":"address"},{"name":"allowance","type":"uint256","internalType":"uint256"},{"name":"needed","type":"uint256","internalType":"uint256"}]},{"type":"error","name":"ERC20InsufficientBalance","inputs":[{"name":"sender","type":"address","internalType":"address"},{"name":"balance","type":"uint256","internalType":"uint256"},{"name":"needed","type":"uint256","internalType":"uint256"}]},{"type":"error","name":"ERC20InvalidApprover","inputs":[{"name":"approver","type":"address","internalType":"address"}]},{"type":"error","name":"ERC20InvalidReceiver","inputs":[{"name":"receiver","type":"address","internalType":"address"}]},{"type":"error","name":"ERC20InvalidSender","inputs":[{"name":"sender","type":"address","internalType":"address"}]},{"type":"error","name":"ERC20InvalidSpender","inputs":[{"name":"spender","type":"address","internalType":"address"}]},{"type":"error","name":"OwnableInvalidOwner","inputs":[{"name":"owner","type":"address","internalType":"address"}]},{"type":"error","name":"OwnableUnauthorizedAccount","inputs":[{"name":"account","type":"address","internalType":"address"}]}],"bytecode":{"object":"0x60806040526005805460ff60a01b1916905534801561001d57600080fd5b5060405161118838038061118883398101604081905261003c9161038b565b338282600361004b8382610479565b5060046100588282610479565b5050506001600160a01b03811661008a57604051631e4fbdf760e01b8152600060048201526024015b60405180910390fd5b610093816100b4565b5061009c610106565b6100ad336100a861011a565b61013c565b5050610674565b600580546001600160a01b038381166001600160a01b0319831681179093556040519116919082907f8be0079c531659141344cd1fd0a4f28419497f9722a3daafe3b4186f6b6457e090600090a35050565b61010e610176565b61011860006100b4565b565b60006101286012600a610634565b610137906461f313f88061064a565b905090565b6001600160a01b0382166101665760405163ec442f0560e01b815260006004820152602401610081565b610172600083836101a3565b5050565b6005546001600160a01b031633146101185760405163118cdaa760e01b8152336004820152602401610081565b6001600160a01b0383166101ce5780600260008282546101c39190610661565b909155506102409050565b6001600160a01b038316600090815260208190526040902054818110156102215760405163391434e360e21b81526001600160a01b03851660048201526024810182905260448101839052606401610081565b6001600160a01b03841660009081526020819052604090209082900390555b6001600160a01b03821661025c5760028054829003905561027b565b6001600160a01b03821660009081526020819052604090208054820190555b816001600160a01b0316836001600160a01b03167fddf252ad1be2c89b69c2b068fc378daa952ba7f163c4a11628f55a4df523b3ef836040516102c091815260200190565b60405180910390a3505050565b634e487b7160e01b600052604160045260246000fd5b600082601f8301126102f457600080fd5b81516001600160401b038082111561030e5761030e6102cd565b604051601f8301601f19908116603f01168101908282118183101715610336576103366102cd565b816040528381526020925086602085880101111561035357600080fd5b600091505b838210156103755785820183015181830184015290820190610358565b6000602085830101528094505050505092915050565b6000806040838503121561039e57600080fd5b82516001600160401b03808211156103b557600080fd5b6103c1868387016102e3565b935060208501519150808211156103d757600080fd5b506103e4858286016102e3565b9150509250929050565b600181811c9082168061040257607f821691505b60208210810361042257634e487b7160e01b600052602260045260246000fd5b50919050565b601f821115610474576000816000526020600020601f850160051c810160208610156104515750805b601f850160051c820191505b818110156104705782815560010161045d565b5050505b505050565b81516001600160401b03811115610492576104926102cd565b6104a6816104a084546103ee565b84610428565b602080601f8311600181146104db57600084156104c35750858301515b600019600386901b1c1916600185901b178555610470565b600085815260208120601f198616915b8281101561050a578886015182559484019460019091019084016104eb565b50858210156105285787850151600019600388901b60f8161c191681555b5050505050600190811b01905550565b634e487b7160e01b600052601160045260246000fd5b600181815b8085111561058957816000190482111561056f5761056f610538565b8085161561057c57918102915b93841c9390800290610553565b509250929050565b6000826105a05750600161062e565b816105ad5750600061062e565b81600181146105c357600281146105cd576105e9565b600191505061062e565b60ff8411156105de576105de610538565b50506001821b61062e565b5060208310610133831016604e8410600b841016171561060c575081810a61062e565b610616838361054e565b806000190482111561062a5761062a610538565b0290505b92915050565b600061064360ff841683610591565b9392505050565b808202811582820484141761062e5761062e610538565b8082018082111561062e5761062e610538565b610b05806106836000396000f3fe608060405234801561001057600080fd5b50600436106101215760003560e01c806370a08231116100ad57806395d89b411161007157806395d89b4114610233578063a9059cbb1461023b578063ced82b5c1461024e578063dd62ed3e14610256578063f2fde38b1461028f57600080fd5b806370a08231146101cc578063715018a6146101f557806379cc6790146101fd5780638da5cb5b1461021057806395952ad41461022b57600080fd5b80631d3e53b1116100f45780631d3e53b11461018557806323b872dd1461018d578063313ce567146101a057806335fc2abe146101af57806342966c68146101b957600080fd5b806306fdde0314610126578063095ea7b314610144578063164500921461016757806318160ddd1461017d575b600080fd5b61012e6102a2565b60405161013b9190610823565b60405180910390f35b61015761015236600461088e565b610334565b604051901515815260200161013b565b61016f61034e565b60405190815260200161013b565b60025461016f565b61016f610370565b61015761019b3660046108b8565b610389565b6040516012815260200161013b565b6101b76103ad565b005b6101b76101c73660046108f4565b6103b8565b61016f6101da36600461090d565b6001600160a01b031660009081526020819052604090205490565b6101b76103c2565b6101b761020b36600461088e565b6103d6565b6005546040516001600160a01b03909116815260200161013b565b6101576103ef565b61012e610419565b61015761024936600461088e565b610428565b6101b7610436565b61016f61026436600461092f565b6001600160a01b03918216600090815260016020908152604080832093909416825291909152205490565b6101b761029d36600461090d565b610440565b6060600380546102b190610962565b80601f01602080910402602001604051908101604052809291908181526020018280546102dd90610962565b801561032a5780601f106102ff5761010080835404028352916020019161032a565b820191906000526020600020905b81548152906001019060200180831161030d57829003601f168201915b5050505050905090565b600033610342818585610480565b60019150505b92915050565b600061035c6012600a610a96565b61036b906461f313f880610aa5565b905090565b600061037e60126005610a96565b61036b90600e610aa5565b600033610397858285610492565b6103a2858585610510565b506001949350505050565b6103b56103ef565b50565b6103b5338261056f565b6103ca6105a5565b6103d460006105d2565b565b6103e1823383610492565b6103eb828261056f565b5050565b6005805460ff600160a01b808304821615810260ff60a01b19909316929092179283905591041690565b6060600480546102b190610962565b600033610342818585610510565b60006103b56103ad565b6104486105a5565b6001600160a01b03811661047757604051631e4fbdf760e01b8152600060048201526024015b60405180910390fd5b6103b5816105d2565b61048d8383836001610624565b505050565b6001600160a01b03838116600090815260016020908152604080832093861683529290522054600019811461050a57818110156104fb57604051637dc7a0d960e11b81526001600160a01b0384166004820152602481018290526044810183905260640161046e565b61050a84848484036000610624565b50505050565b6001600160a01b03831661053a57604051634b637e8f60e11b81526000600482015260240161046e565b6001600160a01b0382166105645760405163ec442f0560e01b81526000600482015260240161046e565b61048d8383836106f9565b6001600160a01b03821661059957604051634b637e8f60e11b81526000600482015260240161046e565b6103eb826000836106f9565b6005546001600160a01b031633146103d45760405163118cdaa760e01b815233600482015260240161046e565b600580546001600160a01b038381166001600160a01b0319831681179093556040519116919082907f8be0079c531659141344cd1fd0a4f28419497f9722a3daafe3b4186f6b6457e090600090a35050565b6001600160a01b03841661064e5760405163e602df0560e01b81526000600482015260240161046e565b6001600160a01b03831661067857604051634a1406b160e11b81526000600482015260240161046e565b6001600160a01b038085166000908152600160209081526040808320938716835292905220829055801561050a57826001600160a01b0316846001600160a01b03167f8c5be1e5ebec7d5bd14f71427d1e84f3dd0314c0f7b2291e5b200ac8c7c3b925846040516106eb91815260200190565b60405180910390a350505050565b6001600160a01b0383166107245780600260008282546107199190610abc565b909155506107969050565b6001600160a01b038316600090815260208190526040902054818110156107775760405163391434e360e21b81526001600160a01b0385166004820152602481018290526044810183905260640161046e565b6001600160a01b03841660009081526020819052604090209082900390555b6001600160a01b0382166107b2576002805482900390556107d1565b6001600160a01b03821660009081526020819052604090208054820190555b816001600160a01b0316836001600160a01b03167fddf252ad1be2c89b69c2b068fc378daa952ba7f163c4a11628f55a4df523b3ef8360405161081691815260200190565b60405180910390a3505050565b60006020808352835180602085015260005b8181101561085157858101830151858201604001528201610835565b506000604082860101526040601f19601f8301168501019250505092915050565b80356001600160a01b038116811461088957600080fd5b919050565b600080604083850312156108a157600080fd5b6108aa83610872565b946020939093013593505050565b6000806000606084860312156108cd57600080fd5b6108d684610872565b92506108e460208501610872565b9150604084013590509250925092565b60006020828403121561090657600080fd5b5035919050565b60006020828403121561091f57600080fd5b61092882610872565b9392505050565b6000806040838503121561094257600080fd5b61094b83610872565b915061095960208401610872565b90509250929050565b600181811c9082168061097657607f821691505b60208210810361099657634e487b7160e01b600052602260045260246000fd5b50919050565b634e487b7160e01b600052601160045260246000fd5b600181815b808511156109ed5781600019048211156109d3576109d361099c565b808516156109e057918102915b93841c93908002906109b7565b509250929050565b600082610a0457506001610348565b81610a1157506000610348565b8160018114610a275760028114610a3157610a4d565b6001915050610348565b60ff841115610a4257610a4261099c565b50506001821b610348565b5060208310610133831016604e8410600b8410161715610a70575081810a610348565b610a7a83836109b2565b8060001904821115610a8e57610a8e61099c565b029392505050565b600061092860ff8416836109f5565b80820281158282048414176103485761034861099c565b808201808211156103485761034861099c56fea26469706673582212205240da345b61068f8d92976dea75fe90a3a26c13659066122c59cb84dafcdc9e64736f6c63430008190033","linkReferences":{}},"methodIdentifiers":{"allowance(address,address)":"dd62ed3e","approve(address,uint256)":"095ea7b3","balanceOf(address)":"70a08231","burn(uint256)":"42966c68","burnFrom(address,uint256)":"79cc6790","calculateRandomNumbers()":"1d3e53b1","decimals()":"313ce567","doEvenMoreOfNothing()":"35fc2abe","letsPlaySomeGame()":"ced82b5c","name()":"06fdde03","owner()":"8da5cb5b","randomInformation()":"95952ad4","renounceOwnership()":"715018a6","symbol()":"95d89b41","totalCap()":"16450092","totalSupply()":"18160ddd","transfer(address,uint256)":"a9059cbb","transferFrom(address,address,uint256)":"23b872dd","transferOwnership(address)":"f2fde38b"},"id":32}