{"abi":[{"type":"constructor","inputs":[{"name":"token_","type":"address","internalType":"address"},{"name":"owner","type":"address","internalType":"address"}],"stateMutability":"nonpayable"},{"type":"function","name":"_paused","inputs":[],"outputs":[{"name":"","type":"bool","internalType":"bool"}],"stateMutability":"view"},{"type":"function","name":"airdrop","inputs":[{"name":"recipients","type":"address[]","internalType":"address[]"},{"name":"amounts","type":"uint256[]","internalType":"uint256[]"}],"outputs":[],"stateMutability":"nonpayable"},{"type":"function","name":"claim","inputs":[{"name":"index","type":"uint256","internalType":"uint256"},{"name":"account","type":"address","internalType":"address"},{"name":"amount","type":"uint256","internalType":"uint256"},{"name":"merkleProof","type":"bytes32[]","internalType":"bytes32[]"}],"outputs":[],"stateMutability":"nonpayable"},{"type":"function","name":"endTime","inputs":[],"outputs":[{"name":"","type":"uint256","internalType":"uint256"}],"stateMutability":"view"},{"type":"function","name":"identity","inputs":[],"outputs":[{"name":"","type":"string","internalType":"string"}],"stateMutability":"view"},{"type":"function","name":"isClaimed","inputs":[{"name":"index","type":"uint256","internalType":"uint256"}],"outputs":[{"name":"","type":"bool","internalType":"bool"}],"stateMutability":"view"},{"type":"function","name":"merkleRoot","inputs":[],"outputs":[{"name":"","type":"bytes32","internalType":"bytes32"}],"stateMutability":"view"},{"type":"function","name":"modifyEndTime","inputs":[{"name":"newEndTime","type":"uint256","internalType":"uint256"}],"outputs":[],"stateMutability":"nonpayable"},{"type":"function","name":"owner","inputs":[],"outputs":[{"name":"","type":"address","internalType":"address"}],"stateMutability":"view"},{"type":"function","name":"pause","inputs":[],"outputs":[],"stateMutability":"nonpayable"},{"type":"function","name":"renounceOwnership","inputs":[],"outputs":[],"stateMutability":"nonpayable"},{"type":"function","name":"setMerkleRoot","inputs":[{"name":"newMerkleRoot","type":"bytes32","internalType":"bytes32"}],"outputs":[],"stateMutability":"nonpayable"},{"type":"function","name":"token","inputs":[],"outputs":[{"name":"","type":"address","internalType":"address"}],"stateMutability":"view"},{"type":"function","name":"transferOwnership","inputs":[{"name":"newOwner","type":"address","internalType":"address"}],"outputs":[],"stateMutability":"nonpayable"},{"type":"function","name":"transferToken","inputs":[{"name":"to","type":"address","internalType":"address"},{"name":"amount","type":"uint256","internalType":"uint256"}],"outputs":[],"stateMutability":"nonpayable"},{"type":"function","name":"unpause","inputs":[],"outputs":[],"stateMutability":"nonpayable"},{"type":"event","name":"Claimed","inputs":[{"name":"index","type":"uint256","indexed":false,"internalType":"uint256"},{"name":"account","type":"address","indexed":false,"internalType":"address"},{"name":"amount","type":"uint256","indexed":false,"internalType":"uint256"}],"anonymous":false},{"type":"event","name":"MerkleRootUpdated","inputs":[{"name":"merkleRoot","type":"bytes32","indexed":false,"internalType":"bytes32"}],"anonymous":false},{"type":"event","name":"OwnershipTransferred","inputs":[{"name":"previousOwner","type":"address","indexed":true,"internalType":"address"},{"name":"newOwner","type":"address","indexed":true,"internalType":"address"}],"anonymous":false},{"type":"event","name":"UpdatePause","inputs":[{"name":"paused","type":"bool","indexed":false,"internalType":"bool"}],"anonymous":false},{"type":"error","name":"AlreadyClaimed","inputs":[]},{"type":"error","name":"ClaimWindowFinished","inputs":[]},{"type":"error","name":"EndTimeInPast","inputs":[]},{"type":"error","name":"InvalidProof","inputs":[]},{"type":"error","name":"MerkleRootAlreadyExists","inputs":[]},{"type":"error","name":"NewEndTimeInPast","inputs":[]},{"type":"error","name":"NewMerkleRootEmpty","inputs":[]},{"type":"error","name":"NoMerkleRootYet","inputs":[]},{"type":"error","name":"OwnableInvalidOwner","inputs":[{"name":"owner","type":"address","internalType":"address"}]},{"type":"error","name":"OwnableUnauthorizedAccount","inputs":[{"name":"account","type":"address","internalType":"address"}]},{"type":"error","name":"Paused","inputs":[]}],"bytecode":{"object":"0x60c06040526006805460ff1916905534801561001a57600080fd5b5060405161119e38038061119e83398101604081905261003991610152565b60408051808201909152600b81526a047616d6541697264726f760ac1b60208201526001600160a01b03838116608052600180546001600160a01b0319163317905583908390819081166100a757604051631e4fbdf760e01b81526000600482015260240160405180910390fd5b6100b0816100e4565b5060046100bd8482610226565b50506001600160a01b031660a052506100d942620697806102e5565b6005555061030c9050565b600380546001600160a01b038381166001600160a01b0319831681179093556040519116919082907f8be0079c531659141344cd1fd0a4f28419497f9722a3daafe3b4186f6b6457e090600090a35050565b80516001600160a01b038116811461014d57600080fd5b919050565b6000806040838503121561016557600080fd5b61016e83610136565b915061017c60208401610136565b90509250929050565b634e487b7160e01b600052604160045260246000fd5b600181811c908216806101af57607f821691505b6020821081036101cf57634e487b7160e01b600052602260045260246000fd5b50919050565b601f821115610221576000816000526020600020601f850160051c810160208610156101fe5750805b601f850160051c820191505b8181101561021d5782815560010161020a565b5050505b505050565b81516001600160401b0381111561023f5761023f610185565b6102538161024d845461019b565b846101d5565b602080601f83116001811461028857600084156102705750858301515b600019600386901b1c1916600185901b17855561021d565b600085815260208120601f198616915b828110156102b757888601518255948401946001909101908401610298565b50858210156102d55787850151600019600388901b60f8161c191681555b5050505050600190811b01905550565b8082018082111561030657634e487b7160e01b600052601160045260246000fd5b92915050565b60805160a051610e5f61033f6000396000610275015260008181610225015281816104ab015261088d0152610e5f6000f3fe608060405234801561001057600080fd5b50600436106101005760003560e01c8063715018a6116100975780638da5cb5b116100665780638da5cb5b146101d55780639e34070f146101fa578063f2fde38b1461020d578063fc0c546a1461022057600080fd5b8063715018a61461019f5780637555e80a146101a75780637cb64759146101ba5780638456cb59146101cd57600080fd5b80632eb4a7ab116100d35780632eb4a7ab146101645780633197cbb61461017b5780633f4ba83a14610184578063672434821461018c57600080fd5b80631072cbea1461010557806316c61ccc1461011a5780632c159a1a1461013c5780632e7ba6ef14610151575b600080fd5b610118610113366004610a9b565b610247565b005b6006546101279060ff1681565b60405190151581526020015b60405180910390f35b6101446102e7565b6040516101339190610ac5565b61011861015f366004610b14565b610375565b61016d60005481565b604051908152602001610133565b61016d60055481565b6101186103d0565b61011861019a366004610c85565b610419565b610118610589565b6101186101b5366004610d45565b61059d565b6101186101c8366004610d45565b6105ee565b610118610670565b6003546001600160a01b03165b6040516001600160a01b039091168152602001610133565b610127610208366004610d45565b6106b8565b61011861021b366004610d5e565b6106f9565b6101e27f000000000000000000000000000000000000000000000000000000000000000081565b61024f610737565b60405163a9059cbb60e01b81526001600160a01b038381166004830152602482018390527f0000000000000000000000000000000000000000000000000000000000000000169063a9059cbb906044016020604051808303816000875af11580156102be573d6000803e3d6000fd5b505050506040513d601f19601f820116820180604052508101906102e29190610d79565b505050565b600480546102f490610d9b565b80601f016020809104026020016040519081016040528092919081815260200182805461032090610d9b565b801561036d5780601f106103425761010080835404028352916020019161036d565b820191906000526020600020905b81548152906001019060200180831161035057829003601f168201915b505050505081565b60065460ff1615610399576040516313d0ff5960e31b815260040160405180910390fd5b6005544211156103bc5760405163d365f61160e01b815260040160405180910390fd5b6103c98585858585610770565b5050505050565b6103d8610737565b6006805460ff19169055604051600081527f798efb9be004f01d793fdd41b99269a07f0af439b378d4559bdd20d79ce1fb6d906020015b60405180910390a1565b610421610737565b805182511461049d5760405162461bcd60e51b815260206004820152603c60248201527f47616d6541697264726f703a3a61697264726f703a20726563697069656e747360448201527f20616e6420616d6f756e7473206c656e677468206d69736d617463680000000060648201526084015b60405180910390fd5b60005b82518110156102e2577f00000000000000000000000000000000000000000000000000000000000000006001600160a01b031663a9059cbb8483815181106104ea576104ea610dd5565b602002602001015184848151811061050457610504610dd5565b60200260200101516040518363ffffffff1660e01b815260040161053d9291906001600160a01b03929092168252602082015260400190565b6020604051808303816000875af115801561055c573d6000803e3d6000fd5b505050506040513d601f19601f820116820180604052508101906105809190610d79565b506001016104a0565b610591610737565b61059b600061094c565b565b6105a5610737565b4260055410156105c8576040516372e54d4d60e01b815260040160405180910390fd5b428110156105e957604051632c926f6d60e11b815260040160405180910390fd5b600555565b6105f661099e565b806106145760405163513aee3160e01b815260040160405180910390fd5b600054156106355760405163360f845160e01b815260040160405180910390fd5b60008190556040518181527f90004c04698bc3322499a575ed3752dd4abf33e0a7294c06a787a0fe01bea9419060200160405180910390a150565b610678610737565b6006805460ff191660019081179091556040519081527f798efb9be004f01d793fdd41b99269a07f0af439b378d4559bdd20d79ce1fb6d9060200161040f565b6000806106c761010084610e01565b905060006106d761010085610e15565b60009283526002602052604090922054600190921b9182169091149392505050565b610701610737565b6001600160a01b03811661072b57604051631e4fbdf760e01b815260006004820152602401610494565b6107348161094c565b50565b6003546001600160a01b0316331461059b57335b60405163118cdaa760e01b81526001600160a01b039091166004820152602401610494565b610779856106b8565b1561079757604051630c8d9eab60e31b815260040160405180910390fd5b6000546107b75760405163e480f60960e01b815260040160405180910390fd5b60408051602081018790526bffffffffffffffffffffffff19606087901b16918101919091526054810184905260009060740160405160208183030381529060405280519060200120905061084183838080602002602001604051908101604052809392919081815260200183836020028082843760009201829052505492508591506109b69050565b61085e576040516309bde33960e01b815260040160405180910390fd5b610867866109cc565b60405163a9059cbb60e01b81526001600160a01b038681166004830152602482018690527f0000000000000000000000000000000000000000000000000000000000000000169063a9059cbb906044016020604051808303816000875af11580156108d6573d6000803e3d6000fd5b505050506040513d601f19601f820116820180604052508101906108fa9190610d79565b50604080518781526001600160a01b03871660208201529081018590527f4ec90e965519d92681267467f775ada5bd214aa92c0dc93d90a5e880ce9ed0269060600160405180910390a1505050505050565b600380546001600160a01b038381166001600160a01b0319831681179093556040519116919082907f8be0079c531659141344cd1fd0a4f28419497f9722a3daafe3b4186f6b6457e090600090a35050565b6001546001600160a01b0316331461059b573361074b565b6000826109c38584610a0a565b14949350505050565b60006109da61010083610e01565b905060006109ea61010084610e15565b6000928352600260205260409092208054600190931b9092179091555050565b600081815b8451811015610a4557610a3b82868381518110610a2e57610a2e610dd5565b6020026020010151610a4d565b9150600101610a0f565b509392505050565b6000818310610a69576000828152602084905260409020610a78565b60008381526020839052604090205b9392505050565b80356001600160a01b0381168114610a9657600080fd5b919050565b60008060408385031215610aae57600080fd5b610ab783610a7f565b946020939093013593505050565b60006020808352835180602085015260005b81811015610af357858101830151858201604001528201610ad7565b506000604082860101526040601f19601f8301168501019250505092915050565b600080600080600060808688031215610b2c57600080fd5b85359450610b3c60208701610a7f565b935060408601359250606086013567ffffffffffffffff80821115610b6057600080fd5b818801915088601f830112610b7457600080fd5b813581811115610b8357600080fd5b8960208260051b8501011115610b9857600080fd5b9699959850939650602001949392505050565b634e487b7160e01b600052604160045260246000fd5b604051601f8201601f1916810167ffffffffffffffff81118282101715610bea57610bea610bab565b604052919050565b600067ffffffffffffffff821115610c0c57610c0c610bab565b5060051b60200190565b600082601f830112610c2757600080fd5b81356020610c3c610c3783610bf2565b610bc1565b8083825260208201915060208460051b870101935086841115610c5e57600080fd5b602086015b84811015610c7a5780358352918301918301610c63565b509695505050505050565b60008060408385031215610c9857600080fd5b823567ffffffffffffffff80821115610cb057600080fd5b818501915085601f830112610cc457600080fd5b81356020610cd4610c3783610bf2565b82815260059290921b84018101918181019089841115610cf357600080fd5b948201945b83861015610d1857610d0986610a7f565b82529482019490820190610cf8565b96505086013592505080821115610d2e57600080fd5b50610d3b85828601610c16565b9150509250929050565b600060208284031215610d5757600080fd5b5035919050565b600060208284031215610d7057600080fd5b610a7882610a7f565b600060208284031215610d8b57600080fd5b81518015158114610a7857600080fd5b600181811c90821680610daf57607f821691505b602082108103610dcf57634e487b7160e01b600052602260045260246000fd5b50919050565b634e487b7160e01b600052603260045260246000fd5b634e487b7160e01b600052601260045260246000fd5b600082610e1057610e10610deb565b500490565b600082610e2457610e24610deb565b50069056fea2646970667358221220e55346ebe9bc31d7cc1a6603c3214ba0e1df66140d2dc08f946979e7719d2de464736f6c63430008190033","linkReferences":{}},"methodIdentifiers":{"_paused()":"16c61ccc","airdrop(address[],uint256[])":"67243482","claim(uint256,address,uint256,bytes32[])":"2e7ba6ef","endTime()":"3197cbb6","identity()":"2c159a1a","isClaimed(uint256)":"9e34070f","merkleRoot()":"2eb4a7ab","modifyEndTime(uint256)":"7555e80a","owner()":"8da5cb5b","pause()":"8456cb59","renounceOwnership()":"715018a6","setMerkleRoot(bytes32)":"7cb64759","token()":"fc0c546a","transferOwnership(address)":"f2fde38b","transferToken(address,uint256)":"1072cbea","unpause()":"3f4ba83a"},"id":29}