{"abi":[{"type":"constructor","inputs":[{"name":"token_","type":"address","internalType":"address"},{"name":"owner","type":"address","internalType":"address"}],"stateMutability":"nonpayable"},{"type":"function","name":"identity","inputs":[],"outputs":[{"name":"","type":"string","internalType":"string"}],"stateMutability":"view"},{"type":"function","name":"owner","inputs":[],"outputs":[{"name":"","type":"address","internalType":"address"}],"stateMutability":"view"},{"type":"function","name":"renounceOwnership","inputs":[],"outputs":[],"stateMutability":"nonpayable"},{"type":"function","name":"transferOwnership","inputs":[{"name":"newOwner","type":"address","internalType":"address"}],"outputs":[],"stateMutability":"nonpayable"},{"type":"function","name":"transferToken","inputs":[{"name":"to","type":"address","internalType":"address"},{"name":"amount","type":"uint256","internalType":"uint256"}],"outputs":[],"stateMutability":"nonpayable"},{"type":"event","name":"OwnershipTransferred","inputs":[{"name":"previousOwner","type":"address","indexed":true,"internalType":"address"},{"name":"newOwner","type":"address","indexed":true,"internalType":"address"}],"anonymous":false},{"type":"error","name":"OwnableInvalidOwner","inputs":[{"name":"owner","type":"address","internalType":"address"}]},{"type":"error","name":"OwnableUnauthorizedAccount","inputs":[{"name":"account","type":"address","internalType":"address"}]}],"bytecode":{"object":"0x60a060405234801561001057600080fd5b506040516106da3803806106da83398101604081905261002f9161011d565b60408051808201909152600d81526c47616d654d61726b6574696e6760981b60208201528282806001600160a01b03811661008457604051631e4fbdf760e01b81526000600482015260240160405180910390fd5b61008d816100b1565b50600161009a84826101f1565b50506001600160a01b0316608052506102b0915050565b600080546001600160a01b038381166001600160a01b0319831681178455604051919092169283917f8be0079c531659141344cd1fd0a4f28419497f9722a3daafe3b4186f6b6457e09190a35050565b80516001600160a01b038116811461011857600080fd5b919050565b6000806040838503121561013057600080fd5b61013983610101565b915061014760208401610101565b90509250929050565b634e487b7160e01b600052604160045260246000fd5b600181811c9082168061017a57607f821691505b60208210810361019a57634e487b7160e01b600052602260045260246000fd5b50919050565b601f8211156101ec576000816000526020600020601f850160051c810160208610156101c95750805b601f850160051c820191505b818110156101e8578281556001016101d5565b5050505b505050565b81516001600160401b0381111561020a5761020a610150565b61021e816102188454610166565b846101a0565b602080601f831160018114610253576000841561023b5750858301515b600019600386901b1c1916600185901b1785556101e8565b600085815260208120601f198616915b8281101561028257888601518255948401946001909101908401610263565b50858210156102a05787850151600019600388901b60f8161c191681555b5050505050600190811b01905550565b6080516104106102ca600039600060f301526104106000f3fe608060405234801561001057600080fd5b50600436106100575760003560e01c80631072cbea1461005c5780632c159a1a14610071578063715018a61461008f5780638da5cb5b14610097578063f2fde38b146100b2575b600080fd5b61006f61006a3660046102e3565b6100c5565b005b610079610165565b604051610086919061030d565b60405180910390f35b61006f6101f3565b6000546040516001600160a01b039091168152602001610086565b61006f6100c036600461035c565b610207565b6100cd61024a565b60405163a9059cbb60e01b81526001600160a01b038381166004830152602482018390527f0000000000000000000000000000000000000000000000000000000000000000169063a9059cbb906044016020604051808303816000875af115801561013c573d6000803e3d6000fd5b505050506040513d601f19601f82011682018060405250810190610160919061037e565b505050565b60018054610172906103a0565b80601f016020809104026020016040519081016040528092919081815260200182805461019e906103a0565b80156101eb5780601f106101c0576101008083540402835291602001916101eb565b820191906000526020600020905b8154815290600101906020018083116101ce57829003601f168201915b505050505081565b6101fb61024a565b6102056000610277565b565b61020f61024a565b6001600160a01b03811661023e57604051631e4fbdf760e01b8152600060048201526024015b60405180910390fd5b61024781610277565b50565b6000546001600160a01b031633146102055760405163118cdaa760e01b8152336004820152602401610235565b600080546001600160a01b038381166001600160a01b0319831681178455604051919092169283917f8be0079c531659141344cd1fd0a4f28419497f9722a3daafe3b4186f6b6457e09190a35050565b80356001600160a01b03811681146102de57600080fd5b919050565b600080604083850312156102f657600080fd5b6102ff836102c7565b946020939093013593505050565b60006020808352835180602085015260005b8181101561033b5785810183015185820160400152820161031f565b506000604082860101526040601f19601f8301168501019250505092915050565b60006020828403121561036e57600080fd5b610377826102c7565b9392505050565b60006020828403121561039057600080fd5b8151801515811461037757600080fd5b600181811c908216806103b457607f821691505b6020821081036103d457634e487b7160e01b600052602260045260246000fd5b5091905056fea2646970667358221220fd311656ce3450dc3279506d682da7d2b30863a2ae01d8a4d2f03326292d3e9d64736f6c63430008190033","linkReferences":{}},"methodIdentifiers":{"identity()":"2c159a1a","owner()":"8da5cb5b","renounceOwnership()":"715018a6","transferOwnership(address)":"f2fde38b","transferToken(address,uint256)":"1072cbea"},"id":31}